:03000000020008F3
:0B006100900000E4F0900080E4F090BC
:0A006C000100E4F0900180E4F09040
:0A0076000200E4F0900280E4F09034
:090080000780E4F0900800E4F0B0
:030089000200036F
:0500030012020980FE5D
:01008C002251
:08008D00AA82AB83751A00750D
:0A0095001B02900480C002C0031299
:06009F000B83751A807549
:0600A5001B04900780120D
:0400AB000A9C750A2C
:0300AF0080750B4E
:0500B20001750C007552
:0400B7000D06750EAF
:0300BB0080750F3E
:0500BE00029001001298
:0600C3000B0175148075AD
:0600C90015047516007518
:0400CF001705751884
:0300D3008075191C
:0800D60000900600120B947566
:0300DE000A0075A0
:0300E1000B00759C
:0600E4000C80750D05758E
:0300EA000E807510
:0600ED000F029005001255
:0A00F3000B01D003D002751A8075CE
:0900FD001B058A828B83020A9C18
:08010600AA82AB83751A807513
:0A010E001B07900500C002C0031299
:040118000A9C750ABE
:03011C0000750B60
:05011F0001750C0075E4
:040124000D07750E40
:0301280000750F50
:05012B000290018012AA
:040130000B01750A40
:0301340000750B48
:0501370001750C80754C
:04013C000D04750E2B
:0301400000750F38
:05014300028508828521
:060148000983120B017592
:06014E000A80750B047528
:060154000C00750D06759C
:03015A000E00751F
:06015D000F0290070012E2
:040163000B01750A0D
:0301670000750B15
:05016A0000750C80751A
:04016F000D06750EF6
:0301730000750F05
:0801760002900600120B017556
:06017E001A80751B0675D6
:090184001C80751D059005001298
:0C018D000A0AE582D003D002601C751A3B
:0301990000751BD3
:05019C0002751C8075D6
:0C01A1001D05900580C002C003120A5327
:0601AD00D003D0028035F2
:0401B300751A007544
:0301B7001B0275B3
:0C01BA001C80900580C002C0031209895F
:0A01C600E582D003D002601A751A1A
:0301D00000751B9C
:0501D30002751C80759F
:0C01D8001D05900580C002C003120A53F0
:0401E400D003D00272
:0701E800751A80751B0590DC
:0E01EF000800C002C003120A9CD003D00275A3
:0A01FD001A80751B058A828B8302AD
:020207000A9C4F
:0E020900900300E4F0900301F0900302F090E7
:0D0217000303F0900304E4F0900305F09061
:0D0224000306F0900307F0900308E4F0904B
:0E0231000309F090030AF090030BF090030C09
:0E023F00E4F090030DF090030EF090030FF02A
:0E024D00900310E4F0900311F0900312F09073
:0D025B000313F0900314E4F0900315F090ED
:0D0268000316F0900317F0900318E4F090D7
:0E0275000319F090031AF090031BF090031C85
:0E028300E4F090031DF090031EF090031FF0B6
:0E029100900320E4F0900321F0900322F090FF
:0D029F000323F0900324E4F0900325F09079
:0D02AC000326F0900327F0900328E4F09063
:0E02B9000329F090032AF090032BF090032C01
:0E02C700E4F090032DF090032EF090032FF042
:0E02D500900330E4F0900331F0900332F0908B
:0D02E3000333F0900334E4F0900335F09005
:0D02F0000336F0900337F0900338E4F090EF
:0E02FD000339F090033AF090033BF090033C7D
:0E030B00E4F090033DF090033EF090033FF0CD
:0E031900900340E4F0900341F0900342F09016
:0D0327000343F0900344E4F0900345F09090
:0D0334000346F0900347F0900348E4F0907A
:0E0341000349F090034AF090034BF090034CF8
:0E034F00E4F090034DF090034EF090034FF059
:0E035D00900350E4F0900351F0900352F090A2
:0D036B000353F0900354E4F0900355F0901C
:0D0378000356F0900357F0900358E4F09006
:0E0385000359F090035AF090035BF090035C74
:0E039300E4F090035DF090035EF090035FF0E5
:0E03A100900360E4F0900361F0900362F0902E
:0D03AF000363F0900364E4F0900365F090A8
:0D03BC000366F0900367F0900368E4F09092
:0E03C9000369F090036AF090036BF090036CF0
:0E03D700E4F090036DF090036EF090036FF071
:0E03E500900370E4F0900371F0900372F090BA
:0D03F3000373F0900374E4F0900375F09034
:0D0400000376F0900377F0900378E4F0901D
:0E040D000379F090037AF090037BF090037C6B
:0E041B00E4F090037DF090037EF090037FF0FC
:0E042900900380E4F0900381F0900382F09045
:0D0437000383F0900384E4F0900385F090BF
:0D0444000386F0900387F0900388E4F090A9
:0E0451000389F090038AF090038BF090038CE7
:0E045F00E4F090038DF090038EF090038FF088
:0E046D00900390E4F0900391F0900392F090D1
:0D047B000393F0900394E4F0900395F0904B
:0D0488000396F0900397F0900398E4F09035
:0E0495000399F090039AF090039BF090039C63
:0E04A300E4F090039DF090039EF090039FF014
:0E04B1009003A0E4F09003A1F09003A2F0905D
:0D04BF0003A3F09003A4E4F09003A5F090D7
:0D04CC0003A6F09003A7F09003A8E4F090C1
:0E04D90003A9F09003AAF09003ABF09003ACDF
:0E04E700E4F09003ADF09003AEF09003AFF0A0
:0E04F5009003B0E4F09003B1F09003B2F090E9
:0D05030003B3F09003B4E4F09003B5F09062
:0D05100003B6F09003B7F09003B8E4F0904C
:0E051D0003B9F09003BAF09003BBF09003BC5A
:0E052B00E4F09003BDF09003BEF09003BFF02B
:0E0539009003C0E4F09003C1F09003C2F09074
:0D05470003C3F09003C4E4F09003C5F090EE
:0D05540003C6F09003C7F09003C8E4F090D8
:0E05610003C9F09003CAF09003CBF09003CCD6
:0E056F00E4F09003CDF09003CEF09003CFF0B7
:0E057D009003D0E4F09003D1F09003D2F09000
:0D058B0003D3F09003D4E4F09003D5F0907A
:0D05980003D6F09003D7F09003D8E4F09064
:0E05A50003D9F09003DAF09003DBF09003DC52
:0E05B300E4F09003DDF09003DEF09003DFF043
:0E05C1009003E0E4F09003E1F09003E2F0908C
:0D05CF0003E3F09003E4E4F09003E5F09006
:0D05DC0003E6F09003E7F09003E8E4F090F0
:0E05E90003E9F09003EAF09003EBF09003ECCE
:0E05F700E4F09003EDF09003EEF09003EFF0CF
:0E0605009003F0E4F09003F1F09003F2F09017
:0D06130003F3F09003F4E4F09003F5F09091
:0D06200003F6F09003F7F09003F8E4F0907B
:0E062D0003F9F09003FAF09003FBF09003FC49
:0E063B00E4F09003FDF09003FEF09003FFF05A
:0E064900900400E4F0900401F0900402F090A0
:0D0657000403F0900404E4F0900405F0901A
:0D0664000406F0900407F0900408E4F09004
:0E0671000409F090040AF090040BF090040CC1
:0E067F00E4F090040DF090040EF090040FF0E3
:0E068D00900410E4F0900411F0900412F0902C
:0D069B000413F0900414E4F0900415F090A6
:0D06A8000416F0900417F0900418E4F09090
:0E06B5000419F090041AF090041BF090041C3D
:0E06C300E4F090041DF090041EF090041FF06F
:0E06D100900420E4F0900421F0900422F090B8
:0D06DF000423F0900424E4F0900425F09032
:0D06EC000426F0900427F0900428E4F0901C
:0E06F9000429F090042AF090042BF090042CB9
:0E070700E4F090042DF090042EF090042FF0FA
:0E071500900430E4F0900431F0900432F09043
:0D0723000433F0900434E4F0900435F090BD
:0D0730000436F0900437F0900438E4F090A7
:0E073D000439F090043AF090043BF090043C34
:0E074B00E4F090043DF090043EF090043FF086
:0E075900900440E4F0900441F0900442F090CF
:0D0767000443F0900444E4F0900445F09049
:0D0774000446F0900447F0900448E4F09033
:0E0781000449F090044AF090044BF090044CB0
:0E078F00E4F090044DF090044EF090044FF012
:0E079D00900450E4F0900451F0900452F0905B
:0D07AB000453F0900454E4F0900455F090D5
:0D07B8000456F0900457F0900458E4F090BF
:0E07C5000459F090045AF090045BF090045C2C
:0E07D300E4F090045DF090045EF090045FF09E
:0E07E100900460E4F0900461F0900462F090E7
:0D07EF000463F0900464E4F0900465F09061
:0D07FC000466F0900467F0900468E4F0904B
:0E0809000469F090046AF090046BF090046CA7
:0E081700E4F090046DF090046EF090046FF029
:0E082500900470E4F0900471F0900472F09072
:0D0833000473F0900474E4F0900475F090EC
:0D0840000476F0900477F0900478E4F090D6
:0E084D000479F090047AF090047BF090047C23
:0E085B00E4F090047DF090047EF090047FF0B5
:0D08690090007F7401F09000FF7402F09089
:0C087600017F7403F09001FF7404F09007
:0E088200027F740BF09002FF7417F09003FFDA
:0E0890007470F09003FE7433F09003FD74500A
:0E089E00F012008C90030012008D90030012E7
:0908AC000AE1900380120AE175D3
:0908B5000880750903900400128B
:0C08BE000106900400120AE175B05522FA
:0708CA0085821E85831F7566
:0608D10024007D007E0002
:0C08D70074FF2E4013ED251CF582EE3559
:0C08E3001DF583E4F00DBD00EB0E80E875
:0608EF0075207F75210059
:0608F500E52130E70122BD
:0608FB00E520251EFFE5CB
:0509010021351FF8750F
:05090600227F752300B3
:0C090B00E52320E75B8F828883E0FBE59A
:0609170022251AF582E51D
:0A091D0023351BF583E08BF0A4FCEA
:08092700ABF0E5222520FDE5FF
:09092F00233521FE0DBD00010E6F
:0A093800ED251CFDEE351DFE8D823D
:0C0942008E83E079002CFCE93BFBAA242A
:0E094E007900EA2CFCE93BFB8C028D828E8343
:09095C00EAF08B24152274FFB5AA
:040965002202152332
:0209690080A06C
:07096B00E520251CF582E5E3
:0609720021351DF583E5AF
:0609780024F075240015B7
:07097E002074FFB5200215F3
:010985002150
:030986000208F56F
:0809890085821D85831E7C00A0
:0C099100AD1C7E00ED24FFFFEE34FFF8EB
:0E099D008C017A00C3E99FEA648088F063F061
:0C09AB008095F0502EEC251DF582E435FF
:0A09B7001EF583E0FAEC251AF58224
:0A09C100E4351BF583E0FBB50200EE
:0609CB00500475820122B8
:0409D100EAB5030080
:0609D500500475820022AF
:0309DB000C80B3DA
:0509DE001DBDFF011E1C
:0A09E300ED251DF582EE351EF583AB
:0A09ED00E0FAED251AF582EE351B45
:0809F700F583E0FBEAB5030003
:0609FF00E433FAB401002C
:050A0500E433F582223C
:0C0A0A00E582247FF582AA82AB83851A66
:0C0A160082851B83E582247FF582AC8280
:0A0A2200AD83851C82851D83E582EB
:0A0A2C00247FF582AE82AF8378804C
:0E0A36008A828B83E0F98C828D83E0398E8278
:0E0A44008F83F01A1C1ED8EA74003400F5826D
:010A52002281
:0C0A5300E582247FF582AA82AB83851A1D
:0C0A5F0082851B83E582247FF582AC8237
:0A0A6B00AD83851C82851D83E582A2
:0A0A7500247FF582AE82AF83788003
:0E0A7F008C828D83E0F98A828B83E0998E82CF
:0E0A8D008F83F01A1C1ED8EA74003400F58224
:010A9B002238
:0A0A9C00AA82AB83AC1AAD1B7E00EA
:020AA6007F00CF
:0E0AA800C3EE9480EF64809480501D8C828D8C
:0E0AB60083E0F8A3AC82AD838A828B83E8F0E4
:0C0AC400A3AA82AB830EBE00DB0F80D81B
:010AD0002203
:060AD10075900175900212
:0A0AD700901200E060FA759003220F
:0A0AE10085821A85831B9010001215
:0E0AEB000A9C9011807440F090118174FFF00D
:080AF900901182E4F0020AD121
:0A0B010085821A85831B90100012F4
:040B0B000A9C850AB1
:030B0F001A850B39
:080B12001B901080120A9C8563
:030B1A000E1A852B
:060B1D000F1B90110012F5
:0E0B23000A9C9011807403F09011817440F0D0
:0D0B31009011827445F09011837401F090D2
:0E0B3E0011847450F0901185E4F0120AD17504
:060B4C001A00751B108564
:060B52000C82850D8302F8
:020B58000A9CF5
:0D0B5A009011807403F09011817499F09057
:0E0B670011827450F0901183E4F0120AD175DF
:060B75001A00751B10853B
:060B7B00128285138302C3
:020B81000A9CCC
:0E0B8300AA82AB83747F2AF582E43BF583746B
:030B910004F0224B
:080B9400AA82AB8385181A85C3
:0A0B9C00191B901000C002C00312E4
:090BA6000A9CD003D0028A1A8BCC
:0B0BAF001B901080120A9C7A007B0053
:0A0BBA00EA2514F582EB3515F583EA
:060BC400E0FC600280125B
:0E0BCA00C3EA9480EB6480948050070ABA005E
:040BD800E10B80DECF
:0E0BDC009011807440F07C027D0090118174B5
:020BEA0045F0D4
:0E0BEC00C3EA9480EB648094804003020DB84D
:0A0BFA00EA2514F582EB3515F583AA
:0B0C0400E0FE8C078D000CBC00010D11
:0E0C0F00EF2480F582E83411F5837402F0EED4
:0C0C1D0030E7168C078D000CBC00010DA8
:0D0C2900EF2480F582E83411F5837401F0AA
:090C36008C078D000CBC00010DBF
:0E0C3F00EF2480F582E83411F5837402F0EEA4
:0C0C4D0030E6168C078D000CBC00010D79
:0D0C5900EF2480F582E83411F5837401F07A
:090C66008C078D000CBC00010D8F
:0E0C6F00EF2480F582E83411F5837402F0EE74
:0C0C7D0030E5168C078D000CBC00010D4A
:0D0C8900EF2480F582E83411F5837401F04A
:090C96008C078D000CBC00010D5F
:0E0C9F00EF2480F582E83411F5837402F0EE44
:0C0CAD0030E4168C078D000CBC00010D1B
:0D0CB900EF2480F582E83411F5837401F01A
:090CC6008C078D000CBC00010D2F
:0E0CCF00EF2480F582E83411F5837402F0EE14
:0C0CDD0030E3168C078D000CBC00010DEC
:0D0CE900EF2480F582E83411F5837401F0EA
:090CF6008C078D000CBC00010DFF
:0E0CFF00EF2480F582E83411F5837402F0EEE4
:0C0D0D0030E2168C078D000CBC00010DBC
:0D0D1900EF2480F582E83411F5837401F0B9
:090D26008C078D000CBC00010DCE
:0E0D2F00EF2480F582E83411F5837402F0EEB3
:0C0D3D0030E1168C078D000CBC00010D8D
:0D0D4900EF2480F582E83411F5837401F089
:090D56008C078D000CBC00010D9E
:0E0D5F00EF2480F582E83411F5837402F0EE83
:0C0D6D0030E0168C068D070CBC00010D58
:0D0D7900EE2480F582EF3411F5837401F053
:0E0D8600C374649C74808DF063F08095F0500F
:0E0D94001BEC2480F582ED3411F583E4F0C0F1
:0E0DA20002C003120AD1D003D0027C007D00F3
:050DB0000ABA00010B6E
:030DB500020BEC42
:090DB8008C028D030CBC00010D3E
:0E0DC100EA2480F582EB3411F5837450F0ECD7
:0E0DCF002480F582ED3411F583E4F0120AD190
:070DDD00751A00751B10855B
:060DE40016828517830250
:020DEA000A9C61
:06003700E4787FF6D8FD1D
:080015007900E94400601B7A48
:05001D0000900DF078D9
:030022000075A0C6
:0A00250000E493F2A308B8000205FE
:08002F00A0D9F4DAF275A0FF7C
:08003D007800E84400600A7934
:030045000075A0A3
:0600480000E4F309D8FCFE
:08004E007800E84400600C7921
:0B00560000900000E4F0A3D8FCD9FAF1
:03000800758124DB
:0A000B00120DECE582600302000311
:040DEC0075820022EA
:00000001FF
